{
  "_format": "hh-sol-artifact-1",
  "contractName": "ERC20Permit",
  "sourceName": "contracts/ERC20Permit.sol",
  "abi": [
    {
      "inputs": [
        {
          "internalType": "string",
          "name": "_name",
          "type": "string"
        },
        {
          "internalType": "string",
          "name": "_symbol",
          "type": "string"
        },
        {
          "internalType": "uint8",
          "name": "_decimals",
          "type": "uint8"
        }
      ],
      "stateMutability": "nonpayable",
      "type": "constructor"
    },
    {
      "anonymous": false,
      "inputs": [
        {
          "indexed": true,
          "internalType": "address",
          "name": "owner",
          "type": "address"
        },
        {
          "indexed": true,
          "internalType": "address",
          "name": "spender",
          "type": "address"
        },
        {
          "indexed": false,
          "internalType": "uint256",
          "name": "amount",
          "type": "uint256"
        }
      ],
      "name": "Approval",
      "type": "event"
    },
    {
      "anonymous": false,
      "inputs": [
        {
          "indexed": true,
          "internalType": "address",
          "name": "from",
          "type": "address"
        },
        {
          "indexed": true,
          "internalType": "address",
          "name": "to",
          "type": "address"
        },
        {
          "indexed": false,
          "internalType": "uint256",
          "name": "amount",
          "type": "uint256"
        }
      ],
      "name": "Transfer",
      "type": "event"
    },
    {
      "inputs": [],
      "name": "DOMAIN_SEPARATOR",
      "outputs": [
        {
          "internalType": "bytes32",
          "name": "",
          "type": "bytes32"
        }
      ],
      "stateMutability": "view",
      "type": "function"
    },
    {
      "inputs": [],
      "name": "PERMIT_TYPEHASH",
      "outputs": [
        {
          "internalType": "bytes32",
          "name": "",
          "type": "bytes32"
        }
      ],
      "stateMutability": "view",
      "type": "function"
    },
    {
      "inputs": [
        {
          "internalType": "address",
          "name": "",
          "type": "address"
        },
        {
          "internalType": "address",
          "name": "",
          "type": "address"
        }
      ],
      "name": "allowance",
      "outputs": [
        {
          "internalType": "uint256",
          "name": "",
          "type": "uint256"
        }
      ],
      "stateMutability": "view",
      "type": "function"
    },
    {
      "inputs": [
        {
          "internalType": "address",
          "name": "spender",
          "type": "address"
        },
        {
          "internalType": "uint256",
          "name": "amount",
          "type": "uint256"
        }
      ],
      "name": "approve",
      "outputs": [
        {
          "internalType": "bool",
          "name": "",
          "type": "bool"
        }
      ],
      "stateMutability": "nonpayable",
      "type": "function"
    },
    {
      "inputs": [
        {
          "internalType": "address",
          "name": "",
          "type": "address"
        }
      ],
      "name": "balanceOf",
      "outputs": [
        {
          "internalType": "uint256",
          "name": "",
          "type": "uint256"
        }
      ],
      "stateMutability": "view",
      "type": "function"
    },
    {
      "inputs": [],
      "name": "decimals",
      "outputs": [
        {
          "internalType": "uint8",
          "name": "",
          "type": "uint8"
        }
      ],
      "stateMutability": "view",
      "type": "function"
    },
    {
      "inputs": [
        {
          "internalType": "address",
          "name": "to",
          "type": "address"
        },
        {
          "internalType": "uint256",
          "name": "amount",
          "type": "uint256"
        }
      ],
      "name": "mint",
      "outputs": [],
      "stateMutability": "nonpayable",
      "type": "function"
    },
    {
      "inputs": [],
      "name": "name",
      "outputs": [
        {
          "internalType": "string",
          "name": "",
          "type": "string"
        }
      ],
      "stateMutability": "view",
      "type": "function"
    },
    {
      "inputs": [
        {
          "internalType": "address",
          "name": "",
          "type": "address"
        }
      ],
      "name": "nonces",
      "outputs": [
        {
          "internalType": "uint256",
          "name": "",
          "type": "uint256"
        }
      ],
      "stateMutability": "view",
      "type": "function"
    },
    {
      "inputs": [
        {
          "internalType": "address",
          "name": "owner",
          "type": "address"
        },
        {
          "internalType": "address",
          "name": "spender",
          "type": "address"
        },
        {
          "internalType": "uint256",
          "name": "value",
          "type": "uint256"
        },
        {
          "internalType": "uint256",
          "name": "deadline",
          "type": "uint256"
        },
        {
          "internalType": "uint8",
          "name": "v",
          "type": "uint8"
        },
        {
          "internalType": "bytes32",
          "name": "r",
          "type": "bytes32"
        },
        {
          "internalType": "bytes32",
          "name": "s",
          "type": "bytes32"
        }
      ],
      "name": "permit",
      "outputs": [],
      "stateMutability": "nonpayable",
      "type": "function"
    },
    {
      "inputs": [],
      "name": "symbol",
      "outputs": [
        {
          "internalType": "string",
          "name": "",
          "type": "string"
        }
      ],
      "stateMutability": "view",
      "type": "function"
    },
    {
      "inputs": [],
      "name": "totalSupply",
      "outputs": [
        {
          "internalType": "uint256",
          "name": "",
          "type": "uint256"
        }
      ],
      "stateMutability": "view",
      "type": "function"
    },
    {
      "inputs": [
        {
          "internalType": "address",
          "name": "to",
          "type": "address"
        },
        {
          "internalType": "uint256",
          "name": "amount",
          "type": "uint256"
        }
      ],
      "name": "transfer",
      "outputs": [
        {
          "internalType": "bool",
          "name": "",
          "type": "bool"
        }
      ],
      "stateMutability": "nonpayable",
      "type": "function"
    },
    {
      "inputs": [
        {
          "internalType": "address",
          "name": "from",
          "type": "address"
        },
        {
          "internalType": "address",
          "name": "to",
          "type": "address"
        },
        {
          "internalType": "uint256",
          "name": "amount",
          "type": "uint256"
        }
      ],
      "name": "transferFrom",
      "outputs": [
        {
          "internalType": "bool",
          "name": "",
          "type": "bool"
        }
      ],
      "stateMutability": "nonpayable",
      "type": "function"
    }
  ],
  "bytecode": "0x60e060405234801561001057600080fd5b506040516110d33803806110d383398101604081905261002f916101d5565b600061003b84826102e1565b50600161004883826102e1565b5060ff81166080524660c05261005c61006d565b60a081905260055550610414915050565b60007f8b73c3c69bb8fe3d512ecc4cf759cc79239f7b179b0ffacaa9a75d522b39400f600060405161009f919061039f565b60408051918290038220828201825260018352603160f81b6020938401528151928301939093528101919091527fc89efdaa54c0f20c7adf612882df0950f5a951637e0307cdcb4c672f298b8bc660608201524660808201523060a082015260c00160405160208183030381529060405280519060200120905090565b634e487b7160e01b600052604160045260246000fd5b600082601f83011261014357600080fd5b81516001600160401b0381111561015c5761015c61011c565b604051601f8201601f19908116603f011681016001600160401b038111828210171561018a5761018a61011c565b6040528181528382016020018510156101a257600080fd5b60005b828110156101c1576020818601810151838301820152016101a5565b506000918101602001919091529392505050565b6000806000606084860312156101ea57600080fd5b83516001600160401b0381111561020057600080fd5b61020c86828701610132565b602086015190945090506001600160401b0381111561022a57600080fd5b61023686828701610132565b925050604084015160ff8116811461024d57600080fd5b809150509250925092565b600181811c9082168061026c57607f821691505b60208210810361028c57634e487b7160e01b600052602260045260246000fd5b50919050565b601f8211156102dc57806000526020600020601f840160051c810160208510156102b95750805b601f840160051c820191505b818110156102d957600081556001016102c5565b50505b505050565b81516001600160401b038111156102fa576102fa61011c565b61030e816103088454610258565b84610292565b6020601f821160018114610342576000831561032a5750848201515b600019600385901b1c1916600184901b1784556102d9565b600084815260208120601f198516915b828110156103725787850151825560209485019460019092019101610352565b50848210156103905786840151600019600387901b60f8161c191681555b50505050600190811b01905550565b60008083546103ad81610258565b6001821680156103c457600181146103d957610409565b60ff1983168652811515820286019350610409565b86600052602060002060005b83811015610401578154888201526001909101906020016103e5565b505081860193505b509195945050505050565b60805160a05160c051610c9361044060003960006105a101526000505060006101860152610c936000f3fe608060405234801561001057600080fd5b50600436106100ea5760003560e01c806340c10f191161008c57806395d89b411161006657806395d89b4114610218578063a9059cbb14610220578063d505accf14610233578063dd62ed3e1461024657600080fd5b806340c10f19146101c357806370a08231146101d85780637ecebe00146101f857600080fd5b806323b872dd116100c857806323b872dd1461014757806330adf81f1461015a578063313ce567146101815780633644e515146101ba57600080fd5b806306fdde03146100ef578063095ea7b31461010d57806318160ddd14610130575b600080fd5b6100f7610271565b60405161010491906109a9565b60405180910390f35b61012061011b366004610a13565b6102ff565b6040519015158152602001610104565b61013960025481565b604051908152602001610104565b610120610155366004610a3d565b61036c565b6101397f6e71edae12b1b97f4d1f60370fef10105fa2faae0126114a169c64845d6126c981565b6101a87f000000000000000000000000000000000000000000000000000000000000000081565b60405160ff9091168152602001610104565b61013960055481565b6101d66101d1366004610a13565b61045e565b005b6101396101e6366004610a7a565b60036020526000908152604090205481565b610139610206366004610a7a565b60066020526000908152604090205481565b6100f761052c565b61012061022e366004610a13565b610539565b6101d6610241366004610a9c565b61054f565b610139610254366004610b0f565b600460209081526000928352604080842090915290825290205481565b6000805461027e90610b42565b80601f01602080910402602001604051908101604052809291908181526020018280546102aa90610b42565b80156102f75780601f106102cc576101008083540402835291602001916102f7565b820191906000526020600020905b8154815290600101906020018083116102da57829003601f168201915b505050505081565b3360008181526004602090815260408083206001600160a01b038716808552925280832085905551919290917f8c5be1e5ebec7d5bd14f71427d1e84f3dd0314c0f7b2291e5b200ac8c7c3b9259061035a9086815260200190565b60405180910390a35060015b92915050565b6001600160a01b0383166000908152600460209081526040808320338452909152812054600019811461044857828110156103e75760405162461bcd60e51b8152602060048201526016602482015275494e53554646494349454e545f414c4c4f57414e434560501b60448201526064015b60405180910390fd5b6001600160a01b038516600081815260046020908152604080832033808552908352928190208786039081905590519081529192917f8c5be1e5ebec7d5bd14f71427d1e84f3dd0314c0f7b2291e5b200ac8c7c3b925910160405180910390a35b6104538585856107e3565b506001949350505050565b6001600160a01b0382166104a35760405162461bcd60e51b815260206004820152600c60248201526b4d494e545f544f5f5a45524f60a01b60448201526064016103de565b80600260008282546104b59190610b92565b90915550506001600160a01b038216600090815260036020526040812080548392906104e2908490610b92565b90915550506040518181526001600160a01b038316906000907fddf252ad1be2c89b69c2b068fc378daa952ba7f163c4a11628f55a4df523b3ef9060200160405180910390a35050565b6001805461027e90610b42565b60006105463384846107e3565b50600192915050565b8342111561059f5760405162461bcd60e51b815260206004820152601760248201527f5045524d49545f444541444c494e455f4558504952454400000000000000000060448201526064016103de565b7f000000000000000000000000000000000000000000000000000000000000000046146105d2576105ce6108fa565b6005555b6005546001600160a01b038816600090815260066020526040812080549192917f6e71edae12b1b97f4d1f60370fef10105fa2faae0126114a169c64845d6126c9918b918b918b91908761062583610ba5565b909155506040805160208101969096526001600160a01b0394851690860152929091166060840152608083015260a082015260c0810187905260e0016040516020818303038152906040528051906020012060405160200161069e92919061190160f01b81526002810192909252602282015260420190565b60408051601f198184030181528282528051602091820120600080855291840180845281905260ff88169284019290925260608301869052608083018590529092509060019060a0016020604051602081039080840390855afa158015610709573d6000803e3d6000fd5b5050604051601f1901519150506001600160a01b0381161580159061073f5750886001600160a01b0316816001600160a01b0316145b61077c5760405162461bcd60e51b815260206004820152600e60248201526d24a72b20a624a22fa9a4a3a722a960911b60448201526064016103de565b6001600160a01b038981166000818152600460209081526040808320948d16808452948252918290208b905590518a81527f8c5be1e5ebec7d5bd14f71427d1e84f3dd0314c0f7b2291e5b200ac8c7c3b925910160405180910390a3505050505050505050565b6001600160a01b03821661082c5760405162461bcd60e51b815260206004820152601060248201526f5452414e534645525f544f5f5a45524f60801b60448201526064016103de565b6001600160a01b0383166000908152600360205260409020548181101561088c5760405162461bcd60e51b8152602060048201526014602482015273494e53554646494349454e545f42414c414e434560601b60448201526064016103de565b6001600160a01b0380851660008181526003602052604080822086860390559286168082529083902080548601905591517fddf252ad1be2c89b69c2b068fc378daa952ba7f163c4a11628f55a4df523b3ef906108ec9086815260200190565b60405180910390a350505050565b60007f8b73c3c69bb8fe3d512ecc4cf759cc79239f7b179b0ffacaa9a75d522b39400f600060405161092c9190610bbe565b60408051918290038220828201825260018352603160f81b6020938401528151928301939093528101919091527fc89efdaa54c0f20c7adf612882df0950f5a951637e0307cdcb4c672f298b8bc660608201524660808201523060a082015260c00160405160208183030381529060405280519060200120905090565b602081526000825180602084015260005b818110156109d757602081860181015160408684010152016109ba565b506000604082850101526040601f19601f83011684010191505092915050565b80356001600160a01b0381168114610a0e57600080fd5b919050565b60008060408385031215610a2657600080fd5b610a2f836109f7565b946020939093013593505050565b600080600060608486031215610a5257600080fd5b610a5b846109f7565b9250610a69602085016109f7565b929592945050506040919091013590565b600060208284031215610a8c57600080fd5b610a95826109f7565b9392505050565b600080600080600080600060e0888a031215610ab757600080fd5b610ac0886109f7565b9650610ace602089016109f7565b95506040880135945060608801359350608088013560ff81168114610af257600080fd5b9699959850939692959460a0840135945060c09093013592915050565b60008060408385031215610b2257600080fd5b610b2b836109f7565b9150610b39602084016109f7565b90509250929050565b600181811c90821680610b5657607f821691505b602082108103610b7657634e487b7160e01b600052602260045260246000fd5b50919050565b634e487b7160e01b600052601160045260246000fd5b8082018082111561036657610366610b7c565b600060018201610bb757610bb7610b7c565b5060010190565b6000808354818160011c90506001821680610bda57607f821691505b602082108103610bf857634e487b7160e01b84526022600452602484fd5b808015610c0c5760018114610c2157610c51565b60ff1984168752821515830287019450610c51565b60008881526020902060005b84811015610c4957815489820152600190910190602001610c2d565b505082870194505b5092969550505050505056fea2646970667358221220958d40f670234454ca0ab69eb55ac289c89ff10dede608cfdcc8e92937821f2e64736f6c634300081a0033",
  "linkReferences": {},
  "deployedLinkReferences": {}
}