{
  "_format": "hh-sol-artifact-1",
  "contractName": "GaslessTokenTransfer",
  "sourceName": "contracts/GaslessTokenTransfer.sol",
  "abi": [
    {
      "inputs": [
        {
          "internalType": "contract IERC20PermitLike",
          "name": "token",
          "type": "address"
        },
        {
          "internalType": "address",
          "name": "sender",
          "type": "address"
        },
        {
          "internalType": "address",
          "name": "receiver",
          "type": "address"
        },
        {
          "internalType": "uint256",
          "name": "amount",
          "type": "uint256"
        },
        {
          "internalType": "uint256",
          "name": "fee",
          "type": "uint256"
        },
        {
          "internalType": "uint256",
          "name": "deadline",
          "type": "uint256"
        },
        {
          "internalType": "uint8",
          "name": "v",
          "type": "uint8"
        },
        {
          "internalType": "bytes32",
          "name": "r",
          "type": "bytes32"
        },
        {
          "internalType": "bytes32",
          "name": "s",
          "type": "bytes32"
        }
      ],
      "name": "send",
      "outputs": [],
      "stateMutability": "nonpayable",
      "type": "function"
    }
  ],
  "bytecode": "0x6080604052348015600f57600080fd5b5061039d8061001f6000396000f3fe608060405234801561001057600080fd5b506004361061002b5760003560e01c80635d21d37b14610030575b600080fd5b61004361003e366004610281565b610045565b005b6001600160a01b03891663d505accf8930610060898b610317565b6040516001600160e01b031960e086901b1681526001600160a01b03938416600482015292909116602483015260448201526064810187905260ff8616608482015260a4810185905260c4810184905260e401600060405180830381600087803b1580156100cd57600080fd5b505af11580156100e1573d6000803e3d6000fd5b50506040516323b872dd60e01b81526001600160a01b038b811660048301528a81166024830152604482018a90528c1692506323b872dd91506064016020604051808303816000875af115801561013c573d6000803e3d6000fd5b505050506040513d601f19601f82011682018060405250810190610160919061033e565b6101a35760405162461bcd60e51b815260206004820152600f60248201526e1514905394d1915497d19052531151608a1b60448201526064015b60405180910390fd5b6040516323b872dd60e01b81526001600160a01b038981166004830152336024830152604482018790528a16906323b872dd906064016020604051808303816000875af11580156101f8573d6000803e3d6000fd5b505050506040513d601f19601f8201168201806040525081019061021c919061033e565b61025e5760405162461bcd60e51b815260206004820152601360248201527211915157d514905394d1915497d19052531151606a1b604482015260640161019a565b505050505050505050565b6001600160a01b038116811461027e57600080fd5b50565b60008060008060008060008060006101208a8c0312156102a057600080fd5b89356102ab81610269565b985060208a01356102bb81610269565b975060408a01356102cb81610269565b965060608a0135955060808a0135945060a08a0135935060c08a013560ff811681146102f657600080fd5b989b979a50959894979396929550929360e081013593506101000135919050565b8082018082111561033857634e487b7160e01b600052601160045260246000fd5b92915050565b60006020828403121561035057600080fd5b8151801515811461036057600080fd5b939250505056fea26469706673582212202a3a35307f4060109ca9ff83ac50d2c92c2a5e01d4be751be21524ef4c2b8e6864736f6c634300081a0033",
  "linkReferences": {},
  "deployedLinkReferences": {}
}